{
	"Original_Consracts/HotelBookingApp.sol": {
		"HotelBooking": {
			"abi": [
				{
					"inputs": [],
					"stateMutability": "nonpayable",
					"type": "constructor"
				},
				{
					"inputs": [],
					"name": "booking",
					"outputs": [],
					"stateMutability": "payable",
					"type": "function"
				},
				{
					"inputs": [],
					"name": "currentStatuses",
					"outputs": [
						{
							"internalType": "enum HotelBooking.Statuses",
							"name": "",
							"type": "uint8"
						}
					],
					"stateMutability": "view",
					"type": "function"
				},
				{
					"inputs": [],
					"name": "owner",
					"outputs": [
						{
							"internalType": "address payable",
							"name": "",
							"type": "address"
						}
					],
					"stateMutability": "view",
					"type": "function"
				}
			],
			"devdoc": {
				"kind": "dev",
				"methods": {},
				"version": 1
			},
			"evm": {
				"assembly": "    /* \"Original_Consracts/HotelBookingApp.sol\":57:957  contract HotelBooking {... */\n  mstore(0x40, 0x80)\n    /* \"Original_Consracts/HotelBookingApp.sol\":287:388  constructor() {... */\n  callvalue\n  dup1\n  iszero\n  tag_1\n  jumpi\n  0x00\n  dup1\n  revert\ntag_1:\n  pop\n    /* \"Original_Consracts/HotelBookingApp.sol\":327:337  msg.sender */\n  caller\n    /* \"Original_Consracts/HotelBookingApp.sol\":311:316  owner */\n  0x00\n  dup1\n    /* \"Original_Consracts/HotelBookingApp.sol\":311:338  owner = payable(msg.sender) */\n  0x0100\n  exp\n  dup2\n  sload\n  dup2\n  0xffffffffffffffffffffffffffffffffffffffff\n  mul\n  not\n  and\n  swap1\n  dup4\n  0xffffffffffffffffffffffffffffffffffffffff\n  and\n  mul\n  or\n  swap1\n  sstore\n  pop\n    /* \"Original_Consracts/HotelBookingApp.sol\":366:381  Statuses.Vacant */\n  0x00\n    /* \"Original_Consracts/HotelBookingApp.sol\":348:363  currentStatuses */\n  dup1\n  0x14\n    /* \"Original_Consracts/HotelBookingApp.sol\":348:381  currentStatuses = Statuses.Vacant */\n  0x0100\n  exp\n  dup2\n  sload\n  dup2\n  0xff\n  mul\n  not\n  and\n  swap1\n  dup4\n  0x01\n  dup2\n  gt\n  iszero\n  tag_4\n  jumpi\n  tag_5\n  tag_6\n  jump\t// in\ntag_5:\ntag_4:\n  mul\n  or\n  swap1\n  sstore\n  pop\n    /* \"Original_Consracts/HotelBookingApp.sol\":57:957  contract HotelBooking {... */\n  jump(tag_7)\n    /* \"#utility.yul\":7:187   */\ntag_6:\n    /* \"#utility.yul\":55:132   */\n  0x4e487b7100000000000000000000000000000000000000000000000000000000\n    /* \"#utility.yul\":52:53   */\n  0x00\n    /* \"#utility.yul\":45:133   */\n  mstore\n    /* \"#utility.yul\":152:156   */\n  0x21\n    /* \"#utility.yul\":149:150   */\n  0x04\n    /* \"#utility.yul\":142:157   */\n  mstore\n    /* \"#utility.yul\":176:180   */\n  0x24\n    /* \"#utility.yul\":173:174   */\n  0x00\n    /* \"#utility.yul\":166:181   */\n  revert\n    /* \"Original_Consracts/HotelBookingApp.sol\":57:957  contract HotelBooking {... */\ntag_7:\n  dataSize(sub_0)\n  dup1\n  dataOffset(sub_0)\n  0x00\n  codecopy\n  0x00\n  return\nstop\n\nsub_0: assembly {\n        /* \"Original_Consracts/HotelBookingApp.sol\":57:957  contract HotelBooking {... */\n      mstore(0x40, 0x80)\n      jumpi(tag_1, lt(calldatasize, 0x04))\n      shr(0xe0, calldataload(0x00))\n      dup1\n      0x1909007d\n      eq\n      tag_2\n      jumpi\n      dup1\n      0x8da5cb5b\n      eq\n      tag_3\n      jumpi\n      dup1\n      0xf98f0dc8\n      eq\n      tag_4\n      jumpi\n    tag_1:\n      0x00\n      dup1\n      revert\n        /* \"Original_Consracts/HotelBookingApp.sol\":720:955  function booking() public payable onlyWhileVacant{... */\n    tag_2:\n      tag_5\n      tag_6\n      jump\t// in\n    tag_5:\n      stop\n        /* \"Original_Consracts/HotelBookingApp.sol\":117:145  address payable public owner */\n    tag_3:\n      callvalue\n      dup1\n      iszero\n      tag_7\n      jumpi\n      0x00\n      dup1\n      revert\n    tag_7:\n      pop\n      tag_8\n      tag_9\n      jump\t// in\n    tag_8:\n      mload(0x40)\n      tag_10\n      swap2\n      swap1\n      tag_11\n      jump\t// in\n    tag_10:\n      mload(0x40)\n      dup1\n      swap2\n      sub\n      swap1\n      return\n        /* \"Original_Consracts/HotelBookingApp.sol\":226:257  Statuses public currentStatuses */\n    tag_4:\n      callvalue\n      dup1\n      iszero\n      tag_12\n      jumpi\n      0x00\n      dup1\n      revert\n    tag_12:\n      pop\n      tag_13\n      tag_14\n      jump\t// in\n    tag_13:\n      mload(0x40)\n      tag_15\n      swap2\n      swap1\n      tag_16\n      jump\t// in\n    tag_15:\n      mload(0x40)\n      dup1\n      swap2\n      sub\n      swap1\n      return\n        /* \"Original_Consracts/HotelBookingApp.sol\":720:955  function booking() public payable onlyWhileVacant{... */\n    tag_6:\n        /* \"Original_Consracts/HotelBookingApp.sol\":495:510  Statuses.Vacant */\n      0x00\n        /* \"Original_Consracts/HotelBookingApp.sol\":476:510  currentStatuses == Statuses.Vacant */\n      0x01\n      dup2\n      gt\n      iszero\n      tag_18\n      jumpi\n      tag_19\n      tag_20\n      jump\t// in\n    tag_19:\n    tag_18:\n        /* \"Original_Consracts/HotelBookingApp.sol\":476:491  currentStatuses */\n      0x00\n      0x14\n      swap1\n      sload\n      swap1\n      0x0100\n      exp\n      swap1\n      div\n      0xff\n      and\n        /* \"Original_Consracts/HotelBookingApp.sol\":476:510  currentStatuses == Statuses.Vacant */\n      0x01\n      dup2\n      gt\n      iszero\n      tag_21\n      jumpi\n      tag_22\n      tag_20\n      jump\t// in\n    tag_22:\n    tag_21:\n      eq\n        /* \"Original_Consracts/HotelBookingApp.sol\":468:531  require(currentStatuses == Statuses.Vacant, \"already ocuppied\") */\n      tag_23\n      jumpi\n      mload(0x40)\n      0x08c379a000000000000000000000000000000000000000000000000000000000\n      dup2\n      mstore\n      0x04\n      add\n      tag_24\n      swap1\n      tag_25\n      jump\t// in\n    tag_24:\n      mload(0x40)\n      dup1\n      swap2\n      sub\n      swap1\n      revert\n    tag_23:\n        /* \"Original_Consracts/HotelBookingApp.sol\":848:865  Statuses.Occupied */\n      0x01\n        /* \"Original_Consracts/HotelBookingApp.sol\":830:845  currentStatuses */\n      0x00\n      0x14\n        /* \"Original_Consracts/HotelBookingApp.sol\":830:865  currentStatuses = Statuses.Occupied */\n      0x0100\n      exp\n      dup2\n      sload\n      dup2\n      0xff\n      mul\n      not\n      and\n      swap1\n      dup4\n      0x01\n      dup2\n      gt\n      iszero\n      tag_27\n      jumpi\n      tag_28\n      tag_20\n      jump\t// in\n    tag_28:\n    tag_27:\n      mul\n      or\n      swap1\n      sstore\n      pop\n        /* \"Original_Consracts/HotelBookingApp.sol\":923:928  owner */\n      0x00\n      dup1\n      sload\n      swap1\n      0x0100\n      exp\n      swap1\n      div\n      0xffffffffffffffffffffffffffffffffffffffff\n      and\n        /* \"Original_Consracts/HotelBookingApp.sol\":923:937  owner.transfer */\n      0xffffffffffffffffffffffffffffffffffffffff\n      and\n        /* \"Original_Consracts/HotelBookingApp.sol\":923:948  owner.transfer(msg.value) */\n      0x08fc\n        /* \"Original_Consracts/HotelBookingApp.sol\":938:947  msg.value */\n      callvalue\n        /* \"Original_Consracts/HotelBookingApp.sol\":923:948  owner.transfer(msg.value) */\n      swap1\n      dup2\n      iszero\n      mul\n      swap1\n      mload(0x40)\n      0x00\n      mload(0x40)\n      dup1\n      dup4\n      sub\n      dup2\n      dup6\n      dup9\n      dup9\n      call\n      swap4\n      pop\n      pop\n      pop\n      pop\n      iszero\n      dup1\n      iszero\n      tag_30\n      jumpi\n      returndatasize\n      0x00\n      dup1\n      returndatacopy\n      revert(0x00, returndatasize)\n    tag_30:\n      pop\n        /* \"Original_Consracts/HotelBookingApp.sol\":720:955  function booking() public payable onlyWhileVacant{... */\n      jump\t// out\n        /* \"Original_Consracts/HotelBookingApp.sol\":117:145  address payable public owner */\n    tag_9:\n      0x00\n      dup1\n      sload\n      swap1\n      0x0100\n      exp\n      swap1\n      div\n      0xffffffffffffffffffffffffffffffffffffffff\n      and\n      dup2\n      jump\t// out\n        /* \"Original_Consracts/HotelBookingApp.sol\":226:257  Statuses public currentStatuses */\n    tag_14:\n      0x00\n      0x14\n      swap1\n      sload\n      swap1\n      0x0100\n      exp\n      swap1\n      div\n      0xff\n      and\n      dup2\n      jump\t// out\n        /* \"#utility.yul\":7:149   */\n    tag_32:\n        /* \"#utility.yul\":110:142   */\n      tag_34\n        /* \"#utility.yul\":136:141   */\n      dup2\n        /* \"#utility.yul\":110:142   */\n      tag_35\n      jump\t// in\n    tag_34:\n        /* \"#utility.yul\":105:108   */\n      dup3\n        /* \"#utility.yul\":98:143   */\n      mstore\n        /* \"#utility.yul\":7:149   */\n      pop\n      pop\n      jump\t// out\n        /* \"#utility.yul\":155:302   */\n    tag_36:\n        /* \"#utility.yul\":250:295   */\n      tag_38\n        /* \"#utility.yul\":289:294   */\n      dup2\n        /* \"#utility.yul\":250:295   */\n      tag_39\n      jump\t// in\n    tag_38:\n        /* \"#utility.yul\":245:248   */\n      dup3\n        /* \"#utility.yul\":238:296   */\n      mstore\n        /* \"#utility.yul\":155:302   */\n      pop\n      pop\n      jump\t// out\n        /* \"#utility.yul\":308:674   */\n    tag_40:\n        /* \"#utility.yul\":450:453   */\n      0x00\n        /* \"#utility.yul\":471:538   */\n      tag_42\n        /* \"#utility.yul\":535:537   */\n      0x10\n        /* \"#utility.yul\":530:533   */\n      dup4\n        /* \"#utility.yul\":471:538   */\n      tag_43\n      jump\t// in\n    tag_42:\n        /* \"#utility.yul\":464:538   */\n      swap2\n      pop\n        /* \"#utility.yul\":547:640   */\n      tag_44\n        /* \"#utility.yul\":636:639   */\n      dup3\n        /* \"#utility.yul\":547:640   */\n      tag_45\n      jump\t// in\n    tag_44:\n        /* \"#utility.yul\":665:667   */\n      0x20\n        /* \"#utility.yul\":660:663   */\n      dup3\n        /* \"#utility.yul\":656:668   */\n      add\n        /* \"#utility.yul\":649:668   */\n      swap1\n      pop\n        /* \"#utility.yul\":308:674   */\n      swap2\n      swap1\n      pop\n      jump\t// out\n        /* \"#utility.yul\":680:934   */\n    tag_11:\n        /* \"#utility.yul\":789:793   */\n      0x00\n        /* \"#utility.yul\":827:829   */\n      0x20\n        /* \"#utility.yul\":816:825   */\n      dup3\n        /* \"#utility.yul\":812:830   */\n      add\n        /* \"#utility.yul\":804:830   */\n      swap1\n      pop\n        /* \"#utility.yul\":840:927   */\n      tag_47\n        /* \"#utility.yul\":924:925   */\n      0x00\n        /* \"#utility.yul\":913:922   */\n      dup4\n        /* \"#utility.yul\":909:926   */\n      add\n        /* \"#utility.yul\":900:906   */\n      dup5\n        /* \"#utility.yul\":840:927   */\n      tag_32\n      jump\t// in\n    tag_47:\n        /* \"#utility.yul\":680:934   */\n      swap3\n      swap2\n      pop\n      pop\n      jump\t// out\n        /* \"#utility.yul\":940:1178   */\n    tag_16:\n        /* \"#utility.yul\":1041:1045   */\n      0x00\n        /* \"#utility.yul\":1079:1081   */\n      0x20\n        /* \"#utility.yul\":1068:1077   */\n      dup3\n        /* \"#utility.yul\":1064:1082   */\n      add\n        /* \"#utility.yul\":1056:1082   */\n      swap1\n      pop\n        /* \"#utility.yul\":1092:1171   */\n      tag_49\n        /* \"#utility.yul\":1168:1169   */\n      0x00\n        /* \"#utility.yul\":1157:1166   */\n      dup4\n        /* \"#utility.yul\":1153:1170   */\n      add\n        /* \"#utility.yul\":1144:1150   */\n      dup5\n        /* \"#utility.yul\":1092:1171   */\n      tag_36\n      jump\t// in\n    tag_49:\n        /* \"#utility.yul\":940:1178   */\n      swap3\n      swap2\n      pop\n      pop\n      jump\t// out\n        /* \"#utility.yul\":1184:1603   */\n    tag_25:\n        /* \"#utility.yul\":1350:1354   */\n      0x00\n        /* \"#utility.yul\":1388:1390   */\n      0x20\n        /* \"#utility.yul\":1377:1386   */\n      dup3\n        /* \"#utility.yul\":1373:1391   */\n      add\n        /* \"#utility.yul\":1365:1391   */\n      swap1\n      pop\n        /* \"#utility.yul\":1437:1446   */\n      dup2\n        /* \"#utility.yul\":1431:1435   */\n      dup2\n        /* \"#utility.yul\":1427:1447   */\n      sub\n        /* \"#utility.yul\":1423:1424   */\n      0x00\n        /* \"#utility.yul\":1412:1421   */\n      dup4\n        /* \"#utility.yul\":1408:1425   */\n      add\n        /* \"#utility.yul\":1401:1448   */\n      mstore\n        /* \"#utility.yul\":1465:1596   */\n      tag_51\n        /* \"#utility.yul\":1591:1595   */\n      dup2\n        /* \"#utility.yul\":1465:1596   */\n      tag_40\n      jump\t// in\n    tag_51:\n        /* \"#utility.yul\":1457:1596   */\n      swap1\n      pop\n        /* \"#utility.yul\":1184:1603   */\n      swap2\n      swap1\n      pop\n      jump\t// out\n        /* \"#utility.yul\":1609:1778   */\n    tag_43:\n        /* \"#utility.yul\":1693:1704   */\n      0x00\n        /* \"#utility.yul\":1727:1733   */\n      dup3\n        /* \"#utility.yul\":1722:1725   */\n      dup3\n        /* \"#utility.yul\":1715:1734   */\n      mstore\n        /* \"#utility.yul\":1767:1771   */\n      0x20\n        /* \"#utility.yul\":1762:1765   */\n      dup3\n        /* \"#utility.yul\":1758:1772   */\n      add\n        /* \"#utility.yul\":1743:1772   */\n      swap1\n      pop\n        /* \"#utility.yul\":1609:1778   */\n      swap3\n      swap2\n      pop\n      pop\n      jump\t// out\n        /* \"#utility.yul\":1784:1888   */\n    tag_35:\n        /* \"#utility.yul\":1829:1836   */\n      0x00\n        /* \"#utility.yul\":1858:1882   */\n      tag_54\n        /* \"#utility.yul\":1876:1881   */\n      dup3\n        /* \"#utility.yul\":1858:1882   */\n      tag_55\n      jump\t// in\n    tag_54:\n        /* \"#utility.yul\":1847:1882   */\n      swap1\n      pop\n        /* \"#utility.yul\":1784:1888   */\n      swap2\n      swap1\n      pop\n      jump\t// out\n        /* \"#utility.yul\":1894:2025   */\n    tag_56:\n        /* \"#utility.yul\":1941:1948   */\n      0x00\n        /* \"#utility.yul\":1970:1975   */\n      dup2\n        /* \"#utility.yul\":1959:1975   */\n      swap1\n      pop\n        /* \"#utility.yul\":1976:2019   */\n      tag_58\n        /* \"#utility.yul\":2013:2018   */\n      dup3\n        /* \"#utility.yul\":1976:2019   */\n      tag_59\n      jump\t// in\n    tag_58:\n        /* \"#utility.yul\":1894:2025   */\n      swap2\n      swap1\n      pop\n      jump\t// out\n        /* \"#utility.yul\":2031:2157   */\n    tag_55:\n        /* \"#utility.yul\":2068:2075   */\n      0x00\n        /* \"#utility.yul\":2108:2150   */\n      0xffffffffffffffffffffffffffffffffffffffff\n        /* \"#utility.yul\":2101:2106   */\n      dup3\n        /* \"#utility.yul\":2097:2151   */\n      and\n        /* \"#utility.yul\":2086:2151   */\n      swap1\n      pop\n        /* \"#utility.yul\":2031:2157   */\n      swap2\n      swap1\n      pop\n      jump\t// out\n        /* \"#utility.yul\":2163:2294   */\n    tag_39:\n        /* \"#utility.yul\":2221:2230   */\n      0x00\n        /* \"#utility.yul\":2254:2288   */\n      tag_62\n        /* \"#utility.yul\":2282:2287   */\n      dup3\n        /* \"#utility.yul\":2254:2288   */\n      tag_56\n      jump\t// in\n    tag_62:\n        /* \"#utility.yul\":2241:2288   */\n      swap1\n      pop\n        /* \"#utility.yul\":2163:2294   */\n      swap2\n      swap1\n      pop\n      jump\t// out\n        /* \"#utility.yul\":2300:2480   */\n    tag_20:\n        /* \"#utility.yul\":2348:2425   */\n      0x4e487b7100000000000000000000000000000000000000000000000000000000\n        /* \"#utility.yul\":2345:2346   */\n      0x00\n        /* \"#utility.yul\":2338:2426   */\n      mstore\n        /* \"#utility.yul\":2445:2449   */\n      0x21\n        /* \"#utility.yul\":2442:2443   */\n      0x04\n        /* \"#utility.yul\":2435:2450   */\n      mstore\n        /* \"#utility.yul\":2469:2473   */\n      0x24\n        /* \"#utility.yul\":2466:2467   */\n      0x00\n        /* \"#utility.yul\":2459:2474   */\n      revert\n        /* \"#utility.yul\":2486:2652   */\n    tag_45:\n        /* \"#utility.yul\":2626:2644   */\n      0x616c7265616479206f6375707069656400000000000000000000000000000000\n        /* \"#utility.yul\":2622:2623   */\n      0x00\n        /* \"#utility.yul\":2614:2620   */\n      dup3\n        /* \"#utility.yul\":2610:2624   */\n      add\n        /* \"#utility.yul\":2603:2645   */\n      mstore\n        /* \"#utility.yul\":2486:2652   */\n      pop\n      jump\t// out\n        /* \"#utility.yul\":2658:2773   */\n    tag_59:\n        /* \"#utility.yul\":2741:2742   */\n      0x02\n        /* \"#utility.yul\":2734:2739   */\n      dup2\n        /* \"#utility.yul\":2731:2743   */\n      lt\n        /* \"#utility.yul\":2721:2767   */\n      tag_66\n      jumpi\n        /* \"#utility.yul\":2747:2765   */\n      tag_67\n      tag_20\n      jump\t// in\n    tag_67:\n        /* \"#utility.yul\":2721:2767   */\n    tag_66:\n        /* \"#utility.yul\":2658:2773   */\n      pop\n      jump\t// out\n\n    auxdata: 0xa26469706673582212207b04c005fbf0e1ca962f722f31bb1fa28d9948a122dca92d8257893312e317df64736f6c63430008070033\n}\n",
				"bytecode": {
					"linkReferences": {},
					"object": "608060405234801561001057600080fd5b50336000806101000a81548173ffffffffffffffffffffffffffffffffffffffff021916908373ffffffffffffffffffffffffffffffffffffffff16021790555060008060146101000a81548160ff0219169083600181111561007657610075610080565b5b02179055506100af565b7f4e487b7100000000000000000000000000000000000000000000000000000000600052602160045260246000fd5b61037b806100be6000396000f3fe6080604052600436106100345760003560e01c80631909007d146100395780638da5cb5b14610043578063f98f0dc81461006e575b600080fd5b610041610099565b005b34801561004f57600080fd5b506100586101a3565b604051610065919061021b565b60405180910390f35b34801561007a57600080fd5b506100836101c7565b6040516100909190610236565b60405180910390f35b600060018111156100ad576100ac6102d9565b5b600060149054906101000a900460ff1660018111156100cf576100ce6102d9565b5b1461010f576040517f08c379a000000000000000000000000000000000000000000000000000000000815260040161010690610251565b60405180910390fd5b6001600060146101000a81548160ff02191690836001811115610135576101346102d9565b5b021790555060008054906101000a900473ffffffffffffffffffffffffffffffffffffffff1673ffffffffffffffffffffffffffffffffffffffff166108fc349081150290604051600060405180830381858888f193505050501580156101a0573d6000803e3d6000fd5b50565b60008054906101000a900473ffffffffffffffffffffffffffffffffffffffff1681565b600060149054906101000a900460ff1681565b6101e381610282565b82525050565b6101f2816102c7565b82525050565b6000610205601083610271565b915061021082610308565b602082019050919050565b600060208201905061023060008301846101da565b92915050565b600060208201905061024b60008301846101e9565b92915050565b6000602082019050818103600083015261026a816101f8565b9050919050565b600082825260208201905092915050565b600061028d826102a7565b9050919050565b60008190506102a282610331565b919050565b600073ffffffffffffffffffffffffffffffffffffffff82169050919050565b60006102d282610294565b9050919050565b7f4e487b7100000000000000000000000000000000000000000000000000000000600052602160045260246000fd5b7f616c7265616479206f6375707069656400000000000000000000000000000000600082015250565b60028110610342576103416102d9565b5b5056fea26469706673582212207b04c005fbf0e1ca962f722f31bb1fa28d9948a122dca92d8257893312e317df64736f6c63430008070033",
					"opcodes": "PUSH1 0x80 PUSH1 0x40 MSTORE CALLVALUE DUP1 ISZERO PUSH2 0x10 JUMPI PUSH1 0x0 DUP1 REVERT JUMPDEST POP CALLER PUSH1 0x0 DUP1 PUSH2 0x100 EXP DUP2 SLOAD DUP2 PUSH20 0xFFFFFFFFFFFFFFFFFFFFFFFFFFFFFFFFFFFFFFFF MUL NOT AND SWAP1 DUP4 PUSH20 0xFFFFFFFFFFFFFFFFFFFFFFFFFFFFFFFFFFFFFFFF AND MUL OR SWAP1 SSTORE POP PUSH1 0x0 DUP1 PUSH1 0x14 PUSH2 0x100 EXP DUP2 SLOAD DUP2 PUSH1 0xFF MUL NOT AND SWAP1 DUP4 PUSH1 0x1 DUP2 GT ISZERO PUSH2 0x76 JUMPI PUSH2 0x75 PUSH2 0x80 JUMP JUMPDEST JUMPDEST MUL OR SWAP1 SSTORE POP PUSH2 0xAF JUMP JUMPDEST PUSH32 0x4E487B7100000000000000000000000000000000000000000000000000000000 PUSH1 0x0 MSTORE PUSH1 0x21 PUSH1 0x4 MSTORE PUSH1 0x24 PUSH1 0x0 REVERT JUMPDEST PUSH2 0x37B DUP1 PUSH2 0xBE PUSH1 0x0 CODECOPY PUSH1 0x0 RETURN INVALID PUSH1 0x80 PUSH1 0x40 MSTORE PUSH1 0x4 CALLDATASIZE LT PUSH2 0x34 JUMPI PUSH1 0x0 CALLDATALOAD PUSH1 0xE0 SHR DUP1 PUSH4 0x1909007D EQ PUSH2 0x39 JUMPI DUP1 PUSH4 0x8DA5CB5B EQ PUSH2 0x43 JUMPI DUP1 PUSH4 0xF98F0DC8 EQ PUSH2 0x6E JUMPI JUMPDEST PUSH1 0x0 DUP1 REVERT JUMPDEST PUSH2 0x41 PUSH2 0x99 JUMP JUMPDEST STOP JUMPDEST CALLVALUE DUP1 ISZERO PUSH2 0x4F JUMPI PUSH1 0x0 DUP1 REVERT JUMPDEST POP PUSH2 0x58 PUSH2 0x1A3 JUMP JUMPDEST PUSH1 0x40 MLOAD PUSH2 0x65 SWAP2 SWAP1 PUSH2 0x21B JUMP JUMPDEST PUSH1 0x40 MLOAD DUP1 SWAP2 SUB SWAP1 RETURN JUMPDEST CALLVALUE DUP1 ISZERO PUSH2 0x7A JUMPI PUSH1 0x0 DUP1 REVERT JUMPDEST POP PUSH2 0x83 PUSH2 0x1C7 JUMP JUMPDEST PUSH1 0x40 MLOAD PUSH2 0x90 SWAP2 SWAP1 PUSH2 0x236 JUMP JUMPDEST PUSH1 0x40 MLOAD DUP1 SWAP2 SUB SWAP1 RETURN JUMPDEST PUSH1 0x0 PUSH1 0x1 DUP2 GT ISZERO PUSH2 0xAD JUMPI PUSH2 0xAC PUSH2 0x2D9 JUMP JUMPDEST JUMPDEST PUSH1 0x0 PUSH1 0x14 SWAP1 SLOAD SWAP1 PUSH2 0x100 EXP SWAP1 DIV PUSH1 0xFF AND PUSH1 0x1 DUP2 GT ISZERO PUSH2 0xCF JUMPI PUSH2 0xCE PUSH2 0x2D9 JUMP JUMPDEST JUMPDEST EQ PUSH2 0x10F JUMPI PUSH1 0x40 MLOAD PUSH32 0x8C379A000000000000000000000000000000000000000000000000000000000 DUP2 MSTORE PUSH1 0x4 ADD PUSH2 0x106 SWAP1 PUSH2 0x251 JUMP JUMPDEST PUSH1 0x40 MLOAD DUP1 SWAP2 SUB SWAP1 REVERT JUMPDEST PUSH1 0x1 PUSH1 0x0 PUSH1 0x14 PUSH2 0x100 EXP DUP2 SLOAD DUP2 PUSH1 0xFF MUL NOT AND SWAP1 DUP4 PUSH1 0x1 DUP2 GT ISZERO PUSH2 0x135 JUMPI PUSH2 0x134 PUSH2 0x2D9 JUMP JUMPDEST JUMPDEST MUL OR SWAP1 SSTORE POP PUSH1 0x0 DUP1 SLOAD SWAP1 PUSH2 0x100 EXP SWAP1 DIV PUSH20 0xFFFFFFFFFFFFFFFFFFFFFFFFFFFFFFFFFFFFFFFF AND PUSH20 0xFFFFFFFFFFFFFFFFFFFFFFFFFFFFFFFFFFFFFFFF AND PUSH2 0x8FC CALLVALUE SWAP1 DUP2 ISZERO MUL SWAP1 PUSH1 0x40 MLOAD PUSH1 0x0 PUSH1 0x40 MLOAD DUP1 DUP4 SUB DUP2 DUP6 DUP9 DUP9 CALL SWAP4 POP POP POP POP ISZERO DUP1 ISZERO PUSH2 0x1A0 JUMPI RETURNDATASIZE PUSH1 0x0 DUP1 RETURNDATACOPY RETURNDATASIZE PUSH1 0x0 REVERT JUMPDEST POP JUMP JUMPDEST PUSH1 0x0 DUP1 SLOAD SWAP1 PUSH2 0x100 EXP SWAP1 DIV PUSH20 0xFFFFFFFFFFFFFFFFFFFFFFFFFFFFFFFFFFFFFFFF AND DUP2 JUMP JUMPDEST PUSH1 0x0 PUSH1 0x14 SWAP1 SLOAD SWAP1 PUSH2 0x100 EXP SWAP1 DIV PUSH1 0xFF AND DUP2 JUMP JUMPDEST PUSH2 0x1E3 DUP2 PUSH2 0x282 JUMP JUMPDEST DUP3 MSTORE POP POP JUMP JUMPDEST PUSH2 0x1F2 DUP2 PUSH2 0x2C7 JUMP JUMPDEST DUP3 MSTORE POP POP JUMP JUMPDEST PUSH1 0x0 PUSH2 0x205 PUSH1 0x10 DUP4 PUSH2 0x271 JUMP JUMPDEST SWAP2 POP PUSH2 0x210 DUP3 PUSH2 0x308 JUMP JUMPDEST PUSH1 0x20 DUP3 ADD SWAP1 POP SWAP2 SWAP1 POP JUMP JUMPDEST PUSH1 0x0 PUSH1 0x20 DUP3 ADD SWAP1 POP PUSH2 0x230 PUSH1 0x0 DUP4 ADD DUP5 PUSH2 0x1DA JUMP JUMPDEST SWAP3 SWAP2 POP POP JUMP JUMPDEST PUSH1 0x0 PUSH1 0x20 DUP3 ADD SWAP1 POP PUSH2 0x24B PUSH1 0x0 DUP4 ADD DUP5 PUSH2 0x1E9 JUMP JUMPDEST SWAP3 SWAP2 POP POP JUMP JUMPDEST PUSH1 0x0 PUSH1 0x20 DUP3 ADD SWAP1 POP DUP2 DUP2 SUB PUSH1 0x0 DUP4 ADD MSTORE PUSH2 0x26A DUP2 PUSH2 0x1F8 JUMP JUMPDEST SWAP1 POP SWAP2 SWAP1 POP JUMP JUMPDEST PUSH1 0x0 DUP3 DUP3 MSTORE PUSH1 0x20 DUP3 ADD SWAP1 POP SWAP3 SWAP2 POP POP JUMP JUMPDEST PUSH1 0x0 PUSH2 0x28D DUP3 PUSH2 0x2A7 JUMP JUMPDEST SWAP1 POP SWAP2 SWAP1 POP JUMP JUMPDEST PUSH1 0x0 DUP2 SWAP1 POP PUSH2 0x2A2 DUP3 PUSH2 0x331 JUMP JUMPDEST SWAP2 SWAP1 POP JUMP JUMPDEST PUSH1 0x0 PUSH20 0xFFFFFFFFFFFFFFFFFFFFFFFFFFFFFFFFFFFFFFFF DUP3 AND SWAP1 POP SWAP2 SWAP1 POP JUMP JUMPDEST PUSH1 0x0 PUSH2 0x2D2 DUP3 PUSH2 0x294 JUMP JUMPDEST SWAP1 POP SWAP2 SWAP1 POP JUMP JUMPDEST PUSH32 0x4E487B7100000000000000000000000000000000000000000000000000000000 PUSH1 0x0 MSTORE PUSH1 0x21 PUSH1 0x4 MSTORE PUSH1 0x24 PUSH1 0x0 REVERT JUMPDEST PUSH32 0x616C7265616479206F6375707069656400000000000000000000000000000000 PUSH1 0x0 DUP3 ADD MSTORE POP JUMP JUMPDEST PUSH1 0x2 DUP2 LT PUSH2 0x342 JUMPI PUSH2 0x341 PUSH2 0x2D9 JUMP JUMPDEST JUMPDEST POP JUMP INVALID LOG2 PUSH5 0x6970667358 0x22 SLT KECCAK256 PUSH28 0x4C005FBF0E1CA962F722F31BB1FA28D9948A122DCA92D8257893312 0xE3 OR 0xDF PUSH5 0x736F6C6343 STOP ADDMOD SMOD STOP CALLER "
				},
				"gasEstimates": {
					"creation": {
						"codeDepositCost": "178200",
						"executionCost": "48835",
						"totalCost": "227035"
					},
					"external": {
						"booking()": "infinite",
						"currentStatuses()": "2632",
						"owner()": "2511"
					}
				},
				"methodIdentifiers": {
					"booking()": "1909007d",
					"currentStatuses()": "f98f0dc8",
					"owner()": "8da5cb5b"
				}
			},
			"storageLayout": {
				"storage": [
					{
						"astId": 3,
						"contract": "Original_Consracts/HotelBookingApp.sol:HotelBooking",
						"label": "owner",
						"offset": 0,
						"slot": "0",
						"type": "t_address_payable"
					},
					{
						"astId": 9,
						"contract": "Original_Consracts/HotelBookingApp.sol:HotelBooking",
						"label": "currentStatuses",
						"offset": 20,
						"slot": "0",
						"type": "t_enum(Statuses)6"
					}
				],
				"types": {
					"t_address_payable": {
						"encoding": "inplace",
						"label": "address payable",
						"numberOfBytes": "20"
					},
					"t_enum(Statuses)6": {
						"encoding": "inplace",
						"label": "enum HotelBooking.Statuses",
						"numberOfBytes": "1"
					}
				}
			},
			"userdoc": {
				"kind": "user",
				"methods": {},
				"version": 1
			}
		}
	}
}