{
	"Original_Consracts/HotelBookingApp.sol": {
		"HotelBooking": {
			"abi": [
				{
					"inputs": [],
					"stateMutability": "nonpayable",
					"type": "constructor"
				},
				{
					"inputs": [],
					"name": "booking",
					"outputs": [],
					"stateMutability": "payable",
					"type": "function"
				},
				{
					"inputs": [],
					"name": "currentStatuses",
					"outputs": [
						{
							"internalType": "enum HotelBooking.Statuses",
							"name": "",
							"type": "uint8"
						}
					],
					"stateMutability": "view",
					"type": "function"
				},
				{
					"inputs": [],
					"name": "owner",
					"outputs": [
						{
							"internalType": "address payable",
							"name": "",
							"type": "address"
						}
					],
					"stateMutability": "view",
					"type": "function"
				}
			],
			"devdoc": {
				"kind": "dev",
				"methods": {},
				"version": 1
			},
			"evm": {
				"assembly": "    /* \"Original_Consracts/HotelBookingApp.sol\":57:788  contract HotelBooking {... */\n  mstore(0x40, 0x80)\n    /* \"Original_Consracts/HotelBookingApp.sol\":287:388  constructor() {... */\n  callvalue\n  dup1\n  iszero\n  tag_1\n  jumpi\n  0x00\n  dup1\n  revert\ntag_1:\n  pop\n    /* \"Original_Consracts/HotelBookingApp.sol\":327:337  msg.sender */\n  caller\n    /* \"Original_Consracts/HotelBookingApp.sol\":311:316  owner */\n  0x00\n  dup1\n    /* \"Original_Consracts/HotelBookingApp.sol\":311:338  owner = payable(msg.sender) */\n  0x0100\n  exp\n  dup2\n  sload\n  dup2\n  0xffffffffffffffffffffffffffffffffffffffff\n  mul\n  not\n  and\n  swap1\n  dup4\n  0xffffffffffffffffffffffffffffffffffffffff\n  and\n  mul\n  or\n  swap1\n  sstore\n  pop\n    /* \"Original_Consracts/HotelBookingApp.sol\":366:381  Statuses.Vacant */\n  0x00\n    /* \"Original_Consracts/HotelBookingApp.sol\":348:363  currentStatuses */\n  dup1\n  0x14\n    /* \"Original_Consracts/HotelBookingApp.sol\":348:381  currentStatuses = Statuses.Vacant */\n  0x0100\n  exp\n  dup2\n  sload\n  dup2\n  0xff\n  mul\n  not\n  and\n  swap1\n  dup4\n  0x01\n  dup2\n  gt\n  iszero\n  tag_4\n  jumpi\n  tag_5\n  tag_6\n  jump\t// in\ntag_5:\ntag_4:\n  mul\n  or\n  swap1\n  sstore\n  pop\n    /* \"Original_Consracts/HotelBookingApp.sol\":57:788  contract HotelBooking {... */\n  jump(tag_7)\n    /* \"#utility.yul\":7:187   */\ntag_6:\n    /* \"#utility.yul\":55:132   */\n  0x4e487b7100000000000000000000000000000000000000000000000000000000\n    /* \"#utility.yul\":52:53   */\n  0x00\n    /* \"#utility.yul\":45:133   */\n  mstore\n    /* \"#utility.yul\":152:156   */\n  0x21\n    /* \"#utility.yul\":149:150   */\n  0x04\n    /* \"#utility.yul\":142:157   */\n  mstore\n    /* \"#utility.yul\":176:180   */\n  0x24\n    /* \"#utility.yul\":173:174   */\n  0x00\n    /* \"#utility.yul\":166:181   */\n  revert\n    /* \"Original_Consracts/HotelBookingApp.sol\":57:788  contract HotelBooking {... */\ntag_7:\n  dataSize(sub_0)\n  dup1\n  dataOffset(sub_0)\n  0x00\n  codecopy\n  0x00\n  return\nstop\n\nsub_0: assembly {\n        /* \"Original_Consracts/HotelBookingApp.sol\":57:788  contract HotelBooking {... */\n      mstore(0x40, 0x80)\n      jumpi(tag_1, lt(calldatasize, 0x04))\n      shr(0xe0, calldataload(0x00))\n      dup1\n      0x1909007d\n      eq\n      tag_2\n      jumpi\n      dup1\n      0x8da5cb5b\n      eq\n      tag_3\n      jumpi\n      dup1\n      0xf98f0dc8\n      eq\n      tag_4\n      jumpi\n    tag_1:\n      0x00\n      dup1\n      revert\n        /* \"Original_Consracts/HotelBookingApp.sol\":414:786  function booking() public payable {... */\n    tag_2:\n      tag_5\n      tag_6\n      jump\t// in\n    tag_5:\n      stop\n        /* \"Original_Consracts/HotelBookingApp.sol\":117:145  address payable public owner */\n    tag_3:\n      callvalue\n      dup1\n      iszero\n      tag_7\n      jumpi\n      0x00\n      dup1\n      revert\n    tag_7:\n      pop\n      tag_8\n      tag_9\n      jump\t// in\n    tag_8:\n      mload(0x40)\n      tag_10\n      swap2\n      swap1\n      tag_11\n      jump\t// in\n    tag_10:\n      mload(0x40)\n      dup1\n      swap2\n      sub\n      swap1\n      return\n        /* \"Original_Consracts/HotelBookingApp.sol\":226:257  Statuses public currentStatuses */\n    tag_4:\n      callvalue\n      dup1\n      iszero\n      tag_12\n      jumpi\n      0x00\n      dup1\n      revert\n    tag_12:\n      pop\n      tag_13\n      tag_14\n      jump\t// in\n    tag_13:\n      mload(0x40)\n      tag_15\n      swap2\n      swap1\n      tag_16\n      jump\t// in\n    tag_15:\n      mload(0x40)\n      dup1\n      swap2\n      sub\n      swap1\n      return\n        /* \"Original_Consracts/HotelBookingApp.sol\":414:786  function booking() public payable {... */\n    tag_6:\n        /* \"Original_Consracts/HotelBookingApp.sol\":524:539  Statuses.Vacant */\n      0x00\n        /* \"Original_Consracts/HotelBookingApp.sol\":505:539  currentStatuses == Statuses.Vacant */\n      0x01\n      dup2\n      gt\n      iszero\n      tag_18\n      jumpi\n      tag_19\n      tag_20\n      jump\t// in\n    tag_19:\n    tag_18:\n        /* \"Original_Consracts/HotelBookingApp.sol\":505:520  currentStatuses */\n      0x00\n      0x14\n      swap1\n      sload\n      swap1\n      0x0100\n      exp\n      swap1\n      div\n      0xff\n      and\n        /* \"Original_Consracts/HotelBookingApp.sol\":505:539  currentStatuses == Statuses.Vacant */\n      0x01\n      dup2\n      gt\n      iszero\n      tag_21\n      jumpi\n      tag_22\n      tag_20\n      jump\t// in\n    tag_22:\n    tag_21:\n      eq\n        /* \"Original_Consracts/HotelBookingApp.sol\":497:551  require(currentStatuses == Statuses.Vacant, \"already\") */\n      tag_23\n      jumpi\n      mload(0x40)\n      0x08c379a000000000000000000000000000000000000000000000000000000000\n      dup2\n      mstore\n      0x04\n      add\n      tag_24\n      swap1\n      tag_25\n      jump\t// in\n    tag_24:\n      mload(0x40)\n      dup1\n      swap2\n      sub\n      swap1\n      revert\n    tag_23:\n        /* \"Original_Consracts/HotelBookingApp.sol\":615:616  2 */\n      0x02\n        /* \"Original_Consracts/HotelBookingApp.sol\":602:611  msg.value */\n      callvalue\n        /* \"Original_Consracts/HotelBookingApp.sol\":602:616  msg.value >= 2 */\n      lt\n      iszero\n        /* \"Original_Consracts/HotelBookingApp.sol\":594:617  require(msg.value >= 2) */\n      tag_26\n      jumpi\n      0x00\n      dup1\n      revert\n    tag_26:\n        /* \"Original_Consracts/HotelBookingApp.sol\":679:696  Statuses.Occupied */\n      0x01\n        /* \"Original_Consracts/HotelBookingApp.sol\":661:676  currentStatuses */\n      0x00\n      0x14\n        /* \"Original_Consracts/HotelBookingApp.sol\":661:696  currentStatuses = Statuses.Occupied */\n      0x0100\n      exp\n      dup2\n      sload\n      dup2\n      0xff\n      mul\n      not\n      and\n      swap1\n      dup4\n      0x01\n      dup2\n      gt\n      iszero\n      tag_27\n      jumpi\n      tag_28\n      tag_20\n      jump\t// in\n    tag_28:\n    tag_27:\n      mul\n      or\n      swap1\n      sstore\n      pop\n        /* \"Original_Consracts/HotelBookingApp.sol\":754:759  owner */\n      0x00\n      dup1\n      sload\n      swap1\n      0x0100\n      exp\n      swap1\n      div\n      0xffffffffffffffffffffffffffffffffffffffff\n      and\n        /* \"Original_Consracts/HotelBookingApp.sol\":754:768  owner.transfer */\n      0xffffffffffffffffffffffffffffffffffffffff\n      and\n        /* \"Original_Consracts/HotelBookingApp.sol\":754:779  owner.transfer(msg.value) */\n      0x08fc\n        /* \"Original_Consracts/HotelBookingApp.sol\":769:778  msg.value */\n      callvalue\n        /* \"Original_Consracts/HotelBookingApp.sol\":754:779  owner.transfer(msg.value) */\n      swap1\n      dup2\n      iszero\n      mul\n      swap1\n      mload(0x40)\n      0x00\n      mload(0x40)\n      dup1\n      dup4\n      sub\n      dup2\n      dup6\n      dup9\n      dup9\n      call\n      swap4\n      pop\n      pop\n      pop\n      pop\n      iszero\n      dup1\n      iszero\n      tag_30\n      jumpi\n      returndatasize\n      0x00\n      dup1\n      returndatacopy\n      revert(0x00, returndatasize)\n    tag_30:\n      pop\n        /* \"Original_Consracts/HotelBookingApp.sol\":414:786  function booking() public payable {... */\n      jump\t// out\n        /* \"Original_Consracts/HotelBookingApp.sol\":117:145  address payable public owner */\n    tag_9:\n      0x00\n      dup1\n      sload\n      swap1\n      0x0100\n      exp\n      swap1\n      div\n      0xffffffffffffffffffffffffffffffffffffffff\n      and\n      dup2\n      jump\t// out\n        /* \"Original_Consracts/HotelBookingApp.sol\":226:257  Statuses public currentStatuses */\n    tag_14:\n      0x00\n      0x14\n      swap1\n      sload\n      swap1\n      0x0100\n      exp\n      swap1\n      div\n      0xff\n      and\n      dup2\n      jump\t// out\n        /* \"#utility.yul\":7:149   */\n    tag_32:\n        /* \"#utility.yul\":110:142   */\n      tag_34\n        /* \"#utility.yul\":136:141   */\n      dup2\n        /* \"#utility.yul\":110:142   */\n      tag_35\n      jump\t// in\n    tag_34:\n        /* \"#utility.yul\":105:108   */\n      dup3\n        /* \"#utility.yul\":98:143   */\n      mstore\n        /* \"#utility.yul\":7:149   */\n      pop\n      pop\n      jump\t// out\n        /* \"#utility.yul\":155:302   */\n    tag_36:\n        /* \"#utility.yul\":250:295   */\n      tag_38\n        /* \"#utility.yul\":289:294   */\n      dup2\n        /* \"#utility.yul\":250:295   */\n      tag_39\n      jump\t// in\n    tag_38:\n        /* \"#utility.yul\":245:248   */\n      dup3\n        /* \"#utility.yul\":238:296   */\n      mstore\n        /* \"#utility.yul\":155:302   */\n      pop\n      pop\n      jump\t// out\n        /* \"#utility.yul\":308:673   */\n    tag_40:\n        /* \"#utility.yul\":450:453   */\n      0x00\n        /* \"#utility.yul\":471:537   */\n      tag_42\n        /* \"#utility.yul\":535:536   */\n      0x07\n        /* \"#utility.yul\":530:533   */\n      dup4\n        /* \"#utility.yul\":471:537   */\n      tag_43\n      jump\t// in\n    tag_42:\n        /* \"#utility.yul\":464:537   */\n      swap2\n      pop\n        /* \"#utility.yul\":546:639   */\n      tag_44\n        /* \"#utility.yul\":635:638   */\n      dup3\n        /* \"#utility.yul\":546:639   */\n      tag_45\n      jump\t// in\n    tag_44:\n        /* \"#utility.yul\":664:666   */\n      0x20\n        /* \"#utility.yul\":659:662   */\n      dup3\n        /* \"#utility.yul\":655:667   */\n      add\n        /* \"#utility.yul\":648:667   */\n      swap1\n      pop\n        /* \"#utility.yul\":308:673   */\n      swap2\n      swap1\n      pop\n      jump\t// out\n        /* \"#utility.yul\":679:933   */\n    tag_11:\n        /* \"#utility.yul\":788:792   */\n      0x00\n        /* \"#utility.yul\":826:828   */\n      0x20\n        /* \"#utility.yul\":815:824   */\n      dup3\n        /* \"#utility.yul\":811:829   */\n      add\n        /* \"#utility.yul\":803:829   */\n      swap1\n      pop\n        /* \"#utility.yul\":839:926   */\n      tag_47\n        /* \"#utility.yul\":923:924   */\n      0x00\n        /* \"#utility.yul\":912:921   */\n      dup4\n        /* \"#utility.yul\":908:925   */\n      add\n        /* \"#utility.yul\":899:905   */\n      dup5\n        /* \"#utility.yul\":839:926   */\n      tag_32\n      jump\t// in\n    tag_47:\n        /* \"#utility.yul\":679:933   */\n      swap3\n      swap2\n      pop\n      pop\n      jump\t// out\n        /* \"#utility.yul\":939:1177   */\n    tag_16:\n        /* \"#utility.yul\":1040:1044   */\n      0x00\n        /* \"#utility.yul\":1078:1080   */\n      0x20\n        /* \"#utility.yul\":1067:1076   */\n      dup3\n        /* \"#utility.yul\":1063:1081   */\n      add\n        /* \"#utility.yul\":1055:1081   */\n      swap1\n      pop\n        /* \"#utility.yul\":1091:1170   */\n      tag_49\n        /* \"#utility.yul\":1167:1168   */\n      0x00\n        /* \"#utility.yul\":1156:1165   */\n      dup4\n        /* \"#utility.yul\":1152:1169   */\n      add\n        /* \"#utility.yul\":1143:1149   */\n      dup5\n        /* \"#utility.yul\":1091:1170   */\n      tag_36\n      jump\t// in\n    tag_49:\n        /* \"#utility.yul\":939:1177   */\n      swap3\n      swap2\n      pop\n      pop\n      jump\t// out\n        /* \"#utility.yul\":1183:1602   */\n    tag_25:\n        /* \"#utility.yul\":1349:1353   */\n      0x00\n        /* \"#utility.yul\":1387:1389   */\n      0x20\n        /* \"#utility.yul\":1376:1385   */\n      dup3\n        /* \"#utility.yul\":1372:1390   */\n      add\n        /* \"#utility.yul\":1364:1390   */\n      swap1\n      pop\n        /* \"#utility.yul\":1436:1445   */\n      dup2\n        /* \"#utility.yul\":1430:1434   */\n      dup2\n        /* \"#utility.yul\":1426:1446   */\n      sub\n        /* \"#utility.yul\":1422:1423   */\n      0x00\n        /* \"#utility.yul\":1411:1420   */\n      dup4\n        /* \"#utility.yul\":1407:1424   */\n      add\n        /* \"#utility.yul\":1400:1447   */\n      mstore\n        /* \"#utility.yul\":1464:1595   */\n      tag_51\n        /* \"#utility.yul\":1590:1594   */\n      dup2\n        /* \"#utility.yul\":1464:1595   */\n      tag_40\n      jump\t// in\n    tag_51:\n        /* \"#utility.yul\":1456:1595   */\n      swap1\n      pop\n        /* \"#utility.yul\":1183:1602   */\n      swap2\n      swap1\n      pop\n      jump\t// out\n        /* \"#utility.yul\":1608:1777   */\n    tag_43:\n        /* \"#utility.yul\":1692:1703   */\n      0x00\n        /* \"#utility.yul\":1726:1732   */\n      dup3\n        /* \"#utility.yul\":1721:1724   */\n      dup3\n        /* \"#utility.yul\":1714:1733   */\n      mstore\n        /* \"#utility.yul\":1766:1770   */\n      0x20\n        /* \"#utility.yul\":1761:1764   */\n      dup3\n        /* \"#utility.yul\":1757:1771   */\n      add\n        /* \"#utility.yul\":1742:1771   */\n      swap1\n      pop\n        /* \"#utility.yul\":1608:1777   */\n      swap3\n      swap2\n      pop\n      pop\n      jump\t// out\n        /* \"#utility.yul\":1783:1887   */\n    tag_35:\n        /* \"#utility.yul\":1828:1835   */\n      0x00\n        /* \"#utility.yul\":1857:1881   */\n      tag_54\n        /* \"#utility.yul\":1875:1880   */\n      dup3\n        /* \"#utility.yul\":1857:1881   */\n      tag_55\n      jump\t// in\n    tag_54:\n        /* \"#utility.yul\":1846:1881   */\n      swap1\n      pop\n        /* \"#utility.yul\":1783:1887   */\n      swap2\n      swap1\n      pop\n      jump\t// out\n        /* \"#utility.yul\":1893:2024   */\n    tag_56:\n        /* \"#utility.yul\":1940:1947   */\n      0x00\n        /* \"#utility.yul\":1969:1974   */\n      dup2\n        /* \"#utility.yul\":1958:1974   */\n      swap1\n      pop\n        /* \"#utility.yul\":1975:2018   */\n      tag_58\n        /* \"#utility.yul\":2012:2017   */\n      dup3\n        /* \"#utility.yul\":1975:2018   */\n      tag_59\n      jump\t// in\n    tag_58:\n        /* \"#utility.yul\":1893:2024   */\n      swap2\n      swap1\n      pop\n      jump\t// out\n        /* \"#utility.yul\":2030:2156   */\n    tag_55:\n        /* \"#utility.yul\":2067:2074   */\n      0x00\n        /* \"#utility.yul\":2107:2149   */\n      0xffffffffffffffffffffffffffffffffffffffff\n        /* \"#utility.yul\":2100:2105   */\n      dup3\n        /* \"#utility.yul\":2096:2150   */\n      and\n        /* \"#utility.yul\":2085:2150   */\n      swap1\n      pop\n        /* \"#utility.yul\":2030:2156   */\n      swap2\n      swap1\n      pop\n      jump\t// out\n        /* \"#utility.yul\":2162:2293   */\n    tag_39:\n        /* \"#utility.yul\":2220:2229   */\n      0x00\n        /* \"#utility.yul\":2253:2287   */\n      tag_62\n        /* \"#utility.yul\":2281:2286   */\n      dup3\n        /* \"#utility.yul\":2253:2287   */\n      tag_56\n      jump\t// in\n    tag_62:\n        /* \"#utility.yul\":2240:2287   */\n      swap1\n      pop\n        /* \"#utility.yul\":2162:2293   */\n      swap2\n      swap1\n      pop\n      jump\t// out\n        /* \"#utility.yul\":2299:2479   */\n    tag_20:\n        /* \"#utility.yul\":2347:2424   */\n      0x4e487b7100000000000000000000000000000000000000000000000000000000\n        /* \"#utility.yul\":2344:2345   */\n      0x00\n        /* \"#utility.yul\":2337:2425   */\n      mstore\n        /* \"#utility.yul\":2444:2448   */\n      0x21\n        /* \"#utility.yul\":2441:2442   */\n      0x04\n        /* \"#utility.yul\":2434:2449   */\n      mstore\n        /* \"#utility.yul\":2468:2472   */\n      0x24\n        /* \"#utility.yul\":2465:2466   */\n      0x00\n        /* \"#utility.yul\":2458:2473   */\n      revert\n        /* \"#utility.yul\":2485:2642   */\n    tag_45:\n        /* \"#utility.yul\":2625:2634   */\n      0x616c726561647900000000000000000000000000000000000000000000000000\n        /* \"#utility.yul\":2621:2622   */\n      0x00\n        /* \"#utility.yul\":2613:2619   */\n      dup3\n        /* \"#utility.yul\":2609:2623   */\n      add\n        /* \"#utility.yul\":2602:2635   */\n      mstore\n        /* \"#utility.yul\":2485:2642   */\n      pop\n      jump\t// out\n        /* \"#utility.yul\":2648:2763   */\n    tag_59:\n        /* \"#utility.yul\":2731:2732   */\n      0x02\n        /* \"#utility.yul\":2724:2729   */\n      dup2\n        /* \"#utility.yul\":2721:2733   */\n      lt\n        /* \"#utility.yul\":2711:2757   */\n      tag_66\n      jumpi\n        /* \"#utility.yul\":2737:2755   */\n      tag_67\n      tag_20\n      jump\t// in\n    tag_67:\n        /* \"#utility.yul\":2711:2757   */\n    tag_66:\n        /* \"#utility.yul\":2648:2763   */\n      pop\n      jump\t// out\n\n    auxdata: 0xa264697066735822122061724b3c900a46b949c692f96e6c7efbc5685c1b7e806694bd2828baa09336b164736f6c63430008070033\n}\n",
				"bytecode": {
					"linkReferences": {},
					"object": "608060405234801561001057600080fd5b50336000806101000a81548173ffffffffffffffffffffffffffffffffffffffff021916908373ffffffffffffffffffffffffffffffffffffffff16021790555060008060146101000a81548160ff0219169083600181111561007657610075610080565b5b02179055506100af565b7f4e487b7100000000000000000000000000000000000000000000000000000000600052602160045260246000fd5b610389806100be6000396000f3fe6080604052600436106100345760003560e01c80631909007d146100395780638da5cb5b14610043578063f98f0dc81461006e575b600080fd5b610041610099565b005b34801561004f57600080fd5b506100586101b1565b6040516100659190610229565b60405180910390f35b34801561007a57600080fd5b506100836101d5565b6040516100909190610244565b60405180910390f35b600060018111156100ad576100ac6102e7565b5b600060149054906101000a900460ff1660018111156100cf576100ce6102e7565b5b1461010f576040517f08c379a00000000000000000000000000000000000000000000000000000000081526004016101069061025f565b60405180910390fd5b600234101561011d57600080fd5b6001600060146101000a81548160ff02191690836001811115610143576101426102e7565b5b021790555060008054906101000a900473ffffffffffffffffffffffffffffffffffffffff1673ffffffffffffffffffffffffffffffffffffffff166108fc349081150290604051600060405180830381858888f193505050501580156101ae573d6000803e3d6000fd5b50565b60008054906101000a900473ffffffffffffffffffffffffffffffffffffffff1681565b600060149054906101000a900460ff1681565b6101f181610290565b82525050565b610200816102d5565b82525050565b600061021360078361027f565b915061021e82610316565b602082019050919050565b600060208201905061023e60008301846101e8565b92915050565b600060208201905061025960008301846101f7565b92915050565b6000602082019050818103600083015261027881610206565b9050919050565b600082825260208201905092915050565b600061029b826102b5565b9050919050565b60008190506102b08261033f565b919050565b600073ffffffffffffffffffffffffffffffffffffffff82169050919050565b60006102e0826102a2565b9050919050565b7f4e487b7100000000000000000000000000000000000000000000000000000000600052602160045260246000fd5b7f616c726561647900000000000000000000000000000000000000000000000000600082015250565b600281106103505761034f6102e7565b5b5056fea264697066735822122061724b3c900a46b949c692f96e6c7efbc5685c1b7e806694bd2828baa09336b164736f6c63430008070033",
					"opcodes": "PUSH1 0x80 PUSH1 0x40 MSTORE CALLVALUE DUP1 ISZERO PUSH2 0x10 JUMPI PUSH1 0x0 DUP1 REVERT JUMPDEST POP CALLER PUSH1 0x0 DUP1 PUSH2 0x100 EXP DUP2 SLOAD DUP2 PUSH20 0xFFFFFFFFFFFFFFFFFFFFFFFFFFFFFFFFFFFFFFFF MUL NOT AND SWAP1 DUP4 PUSH20 0xFFFFFFFFFFFFFFFFFFFFFFFFFFFFFFFFFFFFFFFF AND MUL OR SWAP1 SSTORE POP PUSH1 0x0 DUP1 PUSH1 0x14 PUSH2 0x100 EXP DUP2 SLOAD DUP2 PUSH1 0xFF MUL NOT AND SWAP1 DUP4 PUSH1 0x1 DUP2 GT ISZERO PUSH2 0x76 JUMPI PUSH2 0x75 PUSH2 0x80 JUMP JUMPDEST JUMPDEST MUL OR SWAP1 SSTORE POP PUSH2 0xAF JUMP JUMPDEST PUSH32 0x4E487B7100000000000000000000000000000000000000000000000000000000 PUSH1 0x0 MSTORE PUSH1 0x21 PUSH1 0x4 MSTORE PUSH1 0x24 PUSH1 0x0 REVERT JUMPDEST PUSH2 0x389 DUP1 PUSH2 0xBE PUSH1 0x0 CODECOPY PUSH1 0x0 RETURN INVALID PUSH1 0x80 PUSH1 0x40 MSTORE PUSH1 0x4 CALLDATASIZE LT PUSH2 0x34 JUMPI PUSH1 0x0 CALLDATALOAD PUSH1 0xE0 SHR DUP1 PUSH4 0x1909007D EQ PUSH2 0x39 JUMPI DUP1 PUSH4 0x8DA5CB5B EQ PUSH2 0x43 JUMPI DUP1 PUSH4 0xF98F0DC8 EQ PUSH2 0x6E JUMPI JUMPDEST PUSH1 0x0 DUP1 REVERT JUMPDEST PUSH2 0x41 PUSH2 0x99 JUMP JUMPDEST STOP JUMPDEST CALLVALUE DUP1 ISZERO PUSH2 0x4F JUMPI PUSH1 0x0 DUP1 REVERT JUMPDEST POP PUSH2 0x58 PUSH2 0x1B1 JUMP JUMPDEST PUSH1 0x40 MLOAD PUSH2 0x65 SWAP2 SWAP1 PUSH2 0x229 JUMP JUMPDEST PUSH1 0x40 MLOAD DUP1 SWAP2 SUB SWAP1 RETURN JUMPDEST CALLVALUE DUP1 ISZERO PUSH2 0x7A JUMPI PUSH1 0x0 DUP1 REVERT JUMPDEST POP PUSH2 0x83 PUSH2 0x1D5 JUMP JUMPDEST PUSH1 0x40 MLOAD PUSH2 0x90 SWAP2 SWAP1 PUSH2 0x244 JUMP JUMPDEST PUSH1 0x40 MLOAD DUP1 SWAP2 SUB SWAP1 RETURN JUMPDEST PUSH1 0x0 PUSH1 0x1 DUP2 GT ISZERO PUSH2 0xAD JUMPI PUSH2 0xAC PUSH2 0x2E7 JUMP JUMPDEST JUMPDEST PUSH1 0x0 PUSH1 0x14 SWAP1 SLOAD SWAP1 PUSH2 0x100 EXP SWAP1 DIV PUSH1 0xFF AND PUSH1 0x1 DUP2 GT ISZERO PUSH2 0xCF JUMPI PUSH2 0xCE PUSH2 0x2E7 JUMP JUMPDEST JUMPDEST EQ PUSH2 0x10F JUMPI PUSH1 0x40 MLOAD PUSH32 0x8C379A000000000000000000000000000000000000000000000000000000000 DUP2 MSTORE PUSH1 0x4 ADD PUSH2 0x106 SWAP1 PUSH2 0x25F JUMP JUMPDEST PUSH1 0x40 MLOAD DUP1 SWAP2 SUB SWAP1 REVERT JUMPDEST PUSH1 0x2 CALLVALUE LT ISZERO PUSH2 0x11D JUMPI PUSH1 0x0 DUP1 REVERT JUMPDEST PUSH1 0x1 PUSH1 0x0 PUSH1 0x14 PUSH2 0x100 EXP DUP2 SLOAD DUP2 PUSH1 0xFF MUL NOT AND SWAP1 DUP4 PUSH1 0x1 DUP2 GT ISZERO PUSH2 0x143 JUMPI PUSH2 0x142 PUSH2 0x2E7 JUMP JUMPDEST JUMPDEST MUL OR SWAP1 SSTORE POP PUSH1 0x0 DUP1 SLOAD SWAP1 PUSH2 0x100 EXP SWAP1 DIV PUSH20 0xFFFFFFFFFFFFFFFFFFFFFFFFFFFFFFFFFFFFFFFF AND PUSH20 0xFFFFFFFFFFFFFFFFFFFFFFFFFFFFFFFFFFFFFFFF AND PUSH2 0x8FC CALLVALUE SWAP1 DUP2 ISZERO MUL SWAP1 PUSH1 0x40 MLOAD PUSH1 0x0 PUSH1 0x40 MLOAD DUP1 DUP4 SUB DUP2 DUP6 DUP9 DUP9 CALL SWAP4 POP POP POP POP ISZERO DUP1 ISZERO PUSH2 0x1AE JUMPI RETURNDATASIZE PUSH1 0x0 DUP1 RETURNDATACOPY RETURNDATASIZE PUSH1 0x0 REVERT JUMPDEST POP JUMP JUMPDEST PUSH1 0x0 DUP1 SLOAD SWAP1 PUSH2 0x100 EXP SWAP1 DIV PUSH20 0xFFFFFFFFFFFFFFFFFFFFFFFFFFFFFFFFFFFFFFFF AND DUP2 JUMP JUMPDEST PUSH1 0x0 PUSH1 0x14 SWAP1 SLOAD SWAP1 PUSH2 0x100 EXP SWAP1 DIV PUSH1 0xFF AND DUP2 JUMP JUMPDEST PUSH2 0x1F1 DUP2 PUSH2 0x290 JUMP JUMPDEST DUP3 MSTORE POP POP JUMP JUMPDEST PUSH2 0x200 DUP2 PUSH2 0x2D5 JUMP JUMPDEST DUP3 MSTORE POP POP JUMP JUMPDEST PUSH1 0x0 PUSH2 0x213 PUSH1 0x7 DUP4 PUSH2 0x27F JUMP JUMPDEST SWAP2 POP PUSH2 0x21E DUP3 PUSH2 0x316 JUMP JUMPDEST PUSH1 0x20 DUP3 ADD SWAP1 POP SWAP2 SWAP1 POP JUMP JUMPDEST PUSH1 0x0 PUSH1 0x20 DUP3 ADD SWAP1 POP PUSH2 0x23E PUSH1 0x0 DUP4 ADD DUP5 PUSH2 0x1E8 JUMP JUMPDEST SWAP3 SWAP2 POP POP JUMP JUMPDEST PUSH1 0x0 PUSH1 0x20 DUP3 ADD SWAP1 POP PUSH2 0x259 PUSH1 0x0 DUP4 ADD DUP5 PUSH2 0x1F7 JUMP JUMPDEST SWAP3 SWAP2 POP POP JUMP JUMPDEST PUSH1 0x0 PUSH1 0x20 DUP3 ADD SWAP1 POP DUP2 DUP2 SUB PUSH1 0x0 DUP4 ADD MSTORE PUSH2 0x278 DUP2 PUSH2 0x206 JUMP JUMPDEST SWAP1 POP SWAP2 SWAP1 POP JUMP JUMPDEST PUSH1 0x0 DUP3 DUP3 MSTORE PUSH1 0x20 DUP3 ADD SWAP1 POP SWAP3 SWAP2 POP POP JUMP JUMPDEST PUSH1 0x0 PUSH2 0x29B DUP3 PUSH2 0x2B5 JUMP JUMPDEST SWAP1 POP SWAP2 SWAP1 POP JUMP JUMPDEST PUSH1 0x0 DUP2 SWAP1 POP PUSH2 0x2B0 DUP3 PUSH2 0x33F JUMP JUMPDEST SWAP2 SWAP1 POP JUMP JUMPDEST PUSH1 0x0 PUSH20 0xFFFFFFFFFFFFFFFFFFFFFFFFFFFFFFFFFFFFFFFF DUP3 AND SWAP1 POP SWAP2 SWAP1 POP JUMP JUMPDEST PUSH1 0x0 PUSH2 0x2E0 DUP3 PUSH2 0x2A2 JUMP JUMPDEST SWAP1 POP SWAP2 SWAP1 POP JUMP JUMPDEST PUSH32 0x4E487B7100000000000000000000000000000000000000000000000000000000 PUSH1 0x0 MSTORE PUSH1 0x21 PUSH1 0x4 MSTORE PUSH1 0x24 PUSH1 0x0 REVERT JUMPDEST PUSH32 0x616C726561647900000000000000000000000000000000000000000000000000 PUSH1 0x0 DUP3 ADD MSTORE POP JUMP JUMPDEST PUSH1 0x2 DUP2 LT PUSH2 0x350 JUMPI PUSH2 0x34F PUSH2 0x2E7 JUMP JUMPDEST JUMPDEST POP JUMP INVALID LOG2 PUSH5 0x6970667358 0x22 SLT KECCAK256 PUSH2 0x724B EXTCODECOPY SWAP1 EXP CHAINID 0xB9 0x49 0xC6 SWAP3 0xF9 PUSH15 0x6C7EFBC5685C1B7E806694BD2828BA LOG0 SWAP4 CALLDATASIZE 0xB1 PUSH5 0x736F6C6343 STOP ADDMOD SMOD STOP CALLER "
				},
				"gasEstimates": {
					"creation": {
						"codeDepositCost": "181000",
						"executionCost": "48841",
						"totalCost": "229841"
					},
					"external": {
						"booking()": "infinite",
						"currentStatuses()": "2632",
						"owner()": "2511"
					}
				},
				"methodIdentifiers": {
					"booking()": "1909007d",
					"currentStatuses()": "f98f0dc8",
					"owner()": "8da5cb5b"
				}
			},
			"storageLayout": {
				"storage": [
					{
						"astId": 3,
						"contract": "Original_Consracts/HotelBookingApp.sol:HotelBooking",
						"label": "owner",
						"offset": 0,
						"slot": "0",
						"type": "t_address_payable"
					},
					{
						"astId": 9,
						"contract": "Original_Consracts/HotelBookingApp.sol:HotelBooking",
						"label": "currentStatuses",
						"offset": 20,
						"slot": "0",
						"type": "t_enum(Statuses)6"
					}
				],
				"types": {
					"t_address_payable": {
						"encoding": "inplace",
						"label": "address payable",
						"numberOfBytes": "20"
					},
					"t_enum(Statuses)6": {
						"encoding": "inplace",
						"label": "enum HotelBooking.Statuses",
						"numberOfBytes": "1"
					}
				}
			},
			"userdoc": {
				"kind": "user",
				"methods": {},
				"version": 1
			}
		}
	}
}